:1000000048C0FCC173C360C05FC056C35DC05CC064
:100010005BC05AC059C058C057C056C055C0040331
:10002000090412036F0062006400650076002E0070
:100030006100740014034400610074006100530007
:1000400074006F00720065001201100100000008CA
:10005000C016DF05000101020001090222000101B2
:1000600000800A09040000010300000009210101C9
:100070000001221600070581030800640600FF093D
:1000800001A101150026FF00750895800900B20244
:1000900001C011241FBECFE5D1E0DEBFCDBF10E00F
:1000A000A0E6B0E0E6E9F8E002C005900D92A236C5
:1000B000B107D9F710E0A2E6B0E001C01D92A03A66
:1000C000B107E1F74BD3E5C39BCF85B7826085BF0E
:1000D0008BB780648BBF8BE4809376008AE5809336
:1000E000750008951F93DC01162F8091750084FF21
:1000F00007C08091760098E889278093760003C036
:100100008AE580937500912FE7E7F0E08D91819368
:1001100091501916DCF387E790E0612F58D11C5FEE
:10012000109375001F9108951F93CF93DF936091F3
:100130008600635067FDBDC080918300CCE0D0E0B5
:10014000C81BD109C657DF4F809182008D3209F05C
:100150009EC0683009F0ABC083EC80936A008AE5EA
:1001600080936000109263008881807639F0CE0120
:10017000E2D2282F8F3F09F479C07FC09A81109274
:1001800073008981882321F41092740022E067C0F3
:10019000853019F49093870061C0863009F04AC019
:1001A0008B81813019F488E490E01BC0823041F4E7
:1001B0008AE590E0909385008093840022E236C027
:1001C0008330F9F48A81882341F48EE190E09093A2
:1001D00085008093840024E029C0813041F482E2CC
:1001E00090E0909385008093840022E11FC08230CC
:1001F000E1F484E390E0909385008093840024E10F
:1002000015C0813241F48CE690E090938500809394
:10021000840029E00BC0823241F48CE790E0909397
:1002200085008093840026E101C020E080E4809373
:10023000630023C0883021F421E089E890E011C0F8
:10024000893019F49093890009C08A3011F421E0B3
:1002500006C08B3019F48BE48093760020E083E7AE
:1002600090E0909385008093840007C0888187FD8B
:100270002E8180E88093630006C08F81882319F463
:100280008E81821708F0822F8093610010C08091C8
:10029000630087FF0CC0CE0186D28F3F21F48EE130
:1002A0008093600004C0882311F0109261001092C6
:1002B00086008091600084FF58C0809161008F3F6C
:1002C00009F453C0182F893008F018E0811B80937F
:1002D000610080916A0098E8892780936A00112361
:1002E00091F18091630087FF08C08BE690E0612F59
:1002F00019D2182F893098F526C0209184003091AA
:10030000850086FF0DC0ABE6B0E080E090E0F9012B
:10031000E80FF91FE491ED9301961817C1F708C093
:10032000D901912FEBE6F0E08D9181939150E1F7A7
:100330001150812F90E01F5F0196820F931F9093C1
:100340008500809384008BE690E0612F40D0612F80
:100350006C5F6C3041F08FEF8093610004C08FEFD1
:10036000809361006EE16093600094E186B38670D3
:1003700031F49150D9F7109287001092810010E06B
:10038000992309F411E080916200811739F011235B
:1003900019F4F89428D2789410936200DF91CF91E9
:1003A0001F910895A82FB92F80E090E041E050EA16
:1003B000609530E009C02D9182279795879510F0C0
:1003C00084279527305EC8F36F5FA8F30895EADFAE
:1003D0008D939D930895A6E088279927AA9569F0A3
:1003E0000197E1F3B199FCCFB19BFECF81E0992752
:1003F000A6B3019611F0A670D9F70895CF93CFB7A1
:10040000CF93C395B19BE9F7B19B0BC0B19B09C0DA
:10041000B19B07C0B19B05C0B19B03C0B19B01C09C
:10042000D5C00F92DF93C0918300DD27C657DF4F01
:10043000012EB19B03C0DF910F90E6CF2F930F9356
:100440001F934F932FEF4F6F06B301FB20F95F937C
:100450003F9350E03BE065C016B30126502951FDA3
:10046000C89556B3012701FB25F92F7306B3B1F0E8
:100470005027102711FB26F906B22230F0F000C0F9
:1004800016B3012701FB27F90126502906B22430B3
:10049000E8F54F77206816B30000F6CF50274F7D60
:1004A000206206B2102F000000C006B300265029BB
:1004B000102711FB26F906B2E2CF4F7B06B320646A
:1004C00000C0DACF01265029167006B269F14E7FBE
:1004D0002160012F16B328C0002650294D7F06B297
:1004E0002260102F29C0012650294B7F06B22460BC
:1004F000012F2DC016B301265029477F2860000028
:1005000006B22EC04F7E06B3206130C0422706B32C
:10051000499300265029102706B24FEF11FB20F90E
:10052000297F16B379F2167059F10126502906B2C7
:10053000012701FB21F9237F06B371F20026502920
:100540003150D0F006B2102711FB22F9277E16B3E6
:1005500051F201265029012701FB06B223F92F7C15
:1005600049F2000006B3102711FB24F90026502998
:1005700006B22F7939F270CF10E41ABF002719C0E4
:100580003B503195C31BD04010E41ABF0881033C97
:1005900009F10B34F9F0209181001981110F121328
:1005A000EDCF4A81441F093651F10D3211F0013E61
:1005B00029F7009388003F915F914F911F910F9110
:1005C0002F91DF910F90CAB7C6FD1BCFCF91CFBF40
:1005D000CF91189520918800222369F3109186000D
:1005E000112379F534307AF130938600209382001C
:1005F000109183003BE0311B3093830024C00091B5
:1006000086000130F4F40AE54F7049F4309160003F
:1006100034FD1AC000936000CAE6D0E019C03091E2
:10062000750034FD11C000937500C6E7D0E010C01E
:10063000052710E000C021C0052710E0C89508BBC1
:1006400014C03AE501C032ED032EC0E0D0E032E044
:1006500017B31660C19A08B317BB56E020E84FEFF6
:1006600020FF052708BB279517951C3F28F700009A
:100670004552B0F720FF0527279508BB17951C3F6B
:10068000B8F629913A9561F7097F10918700110F0B
:1006900008BBC250D04011F01093810010E41ABF83
:1006A000026017B3197F402F497F54E05A95F1F744
:1006B00008BB17BB48BB7FCF1F920F920FB60F929C
:1006C00011248F939F9380916400909165008436EC
:1006D000910528F4019690936500809364009F91A2
:1006E0008F910F900FBE0F901F9018951F920F9231
:1006F0000FB60F9211248F939F9388B391E08927AF
:1007000088BB13BE82B790E0909367008093660029
:1007100012BE85E083BF9F918F910F900FBE0F9007
:100720001F901895FC01809166009091670080836E
:10073000918382E00895FC0180818076803261F4AB
:100740008181813011F0893039F480E8809369002B
:10075000109268008FEF089580E008952EE088E100
:1007600090E00FB6F894A89581BD0FBE21BDADDC19
:10077000B99A20E04DE150E104C0A895CA01019763
:10078000F1F72150D1F7B99880E185BB8BB7806232
:100790008BBFB89A85E083BF12BE82E089BF789490
:1007A000A895C2DCFDCF1F93209169002223B9F0E8
:1007B000162F261708F4122F6091680070E0412F61
:1007C00050E051D080916800810F80936800809143
:1007D0006900811B8093690090E0882309F491E00F
:1007E000892F1F910895EF92FF920F931F93CF933C
:1007F000DF9380E8F82E00E0C0E0D0E0102F1F0D5E
:1008000011BFE9DD29E0843392070CF0102FF69434
:100810002196C830D10511F0012FF0CF115011BF32
:100820001F5F7C01C12FD0E0219610C0D4DD84531E
:10083000994097FF03C0909581959F4F8E159F0516
:1008400014F411B77C0181B78F5F81BF81B790E04D
:10085000C817D9075CF711BFDF91CF911F910F9196
:10086000FF90EF900895DC01862F02C02D9104D0F7
:100870004150E0F70895262FE199FECF1CBA1FBA28
:100880008EBB2DBB0FB6F894E29AE19A0FBE01968B
:060890000895F894FFCF6B
:020896005AFF07
:00000001FF
