:1000000045C0F6C15FC05EC05DC050C35BC05AC092
:1000100059C058C057C056C055C054C053C009023B
:100020002200010100800A09040000010300000011
:10003000092101010001221600070581030800645F
:100040001201100100000008C016DF0500010102C6
:1000500000011003740069006E0079004600610021
:100060006E00100366006B00700077006F006C007C
:100070006600040309040600FF0901A1011500261A
:10008000FF00750895800900B20201C011241FBE4F
:10009000CFE5D1E0DEBFCDBF10E0A0E6B0E0E6EAFC
:1000A000F9E003C0C89531960D92A236B107D1F799
:1000B00010E0A2E6B0E001C01D92A03BB107E1F75D
:1000C000FAD370C49DCF1F93B92FA82F162F8091FC
:1000D000810084FF07C08091820098E8892780937F
:1000E000820003C08AE580938100912FE3E8F0E06D
:1000F0008D91819391501916DCF3612F83E890E084
:1001000060D11C5F109381001F91089585B78260B4
:1001100085BF8BB780648BBF8BE4809382008AE5B8
:100120008093810008951F93CF93DF936091920095
:10013000635067FDBCC080918F00C2EAD0E0C81B4D
:10014000D10980918E008D3209F09EC0683009F08F
:10015000ACC083EC809376008AE5809360001092B7
:1001600063008881807621F08C2F9D2F8ED377C0FD
:100170009A8110927F008981882321F41092800057
:1001800082E067C0853019F49093930061C0863097
:1001900009F04AC08B81813041F480E490E0909373
:1001A00091008093900092E13AC0823041F48EE158
:1001B00090E0909391008093900092E230C0833061
:1001C000C9F4992341F482E790E0909391008093E1
:1001D000900094E024C0913019F482E690E004C0CD
:1001E0009230E1F482E590E090939100809390004A
:1001F00090E115C0813241F480E390E0909391004A
:100200008093900099E00BC0823241F486E790E041
:10021000909391008093900096E101C090E080E47B
:1002200080936300892F1BC0883021F481E025E989
:1002300030E011C0893019F49093950009C08A30DC
:1002400011F481E006C08B3019F48BE480938200B6
:1002500080E02FE730E03093910020939000982FBA
:100260008F3F41F4888188230CF49E8180E880933D
:10027000630007C08F81882321F48E81891708F4D9
:10028000982F9093610011C08091630087FF0DC08B
:100290008C2F9D2FD8D28F3F21F48EE18093600068
:1002A00004C0882311F01092610010929200809196
:1002B000600084FF54C0809161008F3F09F44FC0FB
:1002C000893010F068E001C0682F861B80936100C0
:1002D0008091760098E8892780937600662351F113
:1002E0008091630087FF05C087E790E09ED2682F6A
:1002F00021C0E0919000F091910086FF0DC0A7E72A
:10030000B0E090E0262F2195C895802D8D933196F1
:100310009150921759F0F8CFA7E7B0E090E0262F60
:10032000219581918D9391509217D9F7F093910077
:10033000E09390007727162F693058F487E790E014
:1003400040D0912F9C5F9C3040F48FEF80936100F0
:1003500004C08FEF809361009EE19093600094E170
:1003600086B3867031F49150D9F7109293001092B1
:100370008D0010E0992309F411E08091620081174B
:1003800039F0112319F4F894B9D2789410936200DB
:10039000DF91CF911F910895A82FB92F80E090E0B1
:1003A00041E050EA609530E009C02D918227979591
:1003B000879510F084279527305EC8F36F5FA8F308
:1003C0000895EADF8D939D930895A6E088279927E5
:1003D000AA9569F00197E1F3B199FCCFB19BFECFEB
:1003E00081E09927A6B3019611F0A670D9F7089578
:1003F000CF93CFB7CF93C395B19BE9F7B19B0BC018
:10040000B19B09C0B19B07C0B19B05C0B19B03C0A4
:10041000B19B01C0D5C00F92DF93C0918F00DD2743
:10042000CA56DF4F012EB19B03C0DF910F90E6CF7C
:100430002F930F931F934F932FEF4F6F06B301FB33
:1004400020F95F933F9350E03BE065C016B301266F
:10045000502951FDC89556B3012701FB25F92F738B
:1004600006B3B1F05027102711FB26F906B222304F
:10047000F0F000C016B3012701FB27F9012650292F
:1004800006B22430E8F54F77206816B30000F6CFA7
:1004900050274F7D206206B2102F000000C006B327
:1004A00000265029102711FB26F906B2E2CF4F7B18
:1004B00006B3206400C0DACF01265029167006B2B8
:1004C00069F14E7F2160012F16B328C00026502904
:1004D0004D7F06B22260102F29C0012650294B7F84
:1004E00006B22460012F2DC016B301265029477F84
:1004F0002860000006B22EC04F7E06B3206130C0D7
:10050000422706B3499300265029102706B24FEF21
:1005100011FB20F9297F16B379F2167059F10126E3
:10052000502906B2012701FB21F9237F06B371F29E
:10053000002650293150D0F006B2102711FB22F9C5
:10054000277E16B351F201265029012701FB06B27E
:1005500023F92F7C49F2000006B3102711FB24F980
:100560000026502906B22F7939F270CF10E41ABF55
:10057000002719C03B503195C31BD04010E41ABF6F
:100580000881033C09F10B34F9F020918D001981A9
:10059000110F1213EDCF4A81441F093651F10D326C
:1005A00011F0013E29F7009394003F915F914F9124
:1005B0001F910F912F91DF910F90CAB7C6FD1BCFEE
:1005C000CF91CFBFCF91189520919400222369F34A
:1005D00010919200112379F534307AF13093920022
:1005E00020938E0010918F003BE0311B30938F00E1
:1005F00024C0009192000130F4F40AE54F7049F4F0
:100600003091600034FD1AC000936000C6E7D0E06E
:1006100019C03091810034FD11C000938100C2E8FF
:10062000D0E010C0052710E000C021C0052710E071
:10063000C89508BB14C03AE501C032ED032EC0E0F6
:10064000D0E032E017B31660C19A08B317BB56E08A
:1006500020E84FEF20FF052708BB279517951C3F83
:1006600028F700004552B0F720FF0527279508BB63
:1006700017951C3FB8F629913A9561F7097F1091BB
:100680009300110F08BBC250D04011F010938D00A1
:1006900010E41ABF026017B3197F402F497F54E05E
:1006A0005A95F1F708BB17BB48BB7FCF1F920F923B
:1006B0000FB60F9211242F933F934F935F936F9335
:1006C0007F938F939F93AF93BF93789412BE86B31B
:1006D000682F77276071707080916E0090916F0025
:1006E0006817790729F0109273001092720009C000
:1006F00080917200909173000196909373008093A3
:10070000720080917200909173000697B9F5809104
:100710006400909165008617970781F180916600CB
:1007200090916700A0916800B091690020916A00E3
:1007300030916B0040916C0050916D00821B930BC7
:10074000A40BB50B8093AC009093AD00A093AE00CA
:10075000B093AF008091660090916700A09168000F
:10076000B091690080936A0090936B00A0936C0035
:10077000B0936D00709365006093640070936F0098
:1007800060936E008091660090916700A091680070
:10079000B09169000196A11DB11D809366009093F0
:1007A0006700A0936800B093690080916600909103
:1007B0006700A0916800B091690081519742A04004
:1007C000B04024F18091660090916700A09168008C
:1007D000B091690020916A0030916B0040916C00EB
:1007E00050916D00821B930BA40BB50B8093660098
:1007F00090936700A0936800B093690010926A001C
:1008000010926B0010926C0010926D00BF91AF912E
:100810009F918F917F916F915F914F913F912F9118
:100820000F900FBE0F901F901895F92FE82F809111
:10083000AC009091AD00A091AE00B091AF0080836C
:1008400082E090E008951F93109174001123B9F095
:10085000161708F0162F412F55276091750077273E
:100860008AD080917500810F80937500809174000B
:10087000811B8093740020E030E0882311F421E094
:1008800030E0932F822F1F910895F92FE82F808158
:100890008076803269F48181813011F0893041F4B1
:1008A00080E880937400109275008FEF90E00895B7
:1008B00080E090E00895CFE5D1E0DEBFCDBF88E1D4
:1008C00090E02EE00FB6F894A89581BD0FBE21BD33
:1008D0001DDCB99A20E005C0A8958DE190E1019753
:1008E000F1F72150C9F7B998BC9883E083BF12BED5
:1008F00082E089BF7894A89516DCFDCFFF920F9314
:100900001F93CF93DF9380E8F82E00E0C8E0D0E09B
:10091000102F1F0D11BF59DD29E0843392070CF40D
:10092000012FF6942197A1F7015001BF0F5F102FFF
:10093000D92FC82F11C049DD8453994097FF03C0B8
:10094000909581959F4F8C179D071CF411B7D92F57
:10095000C82F81B78F5F81BF21B73327802F992799
:100960000196821793073CF711BFDF91CF911F913A
:100970000F91FF900895A82FB92F862F02C02D91B7
:1009800004D04150E0F70895262FE199FECF1CBA1C
:100990001FBA8EBB2DBB0FB6F894E29AE19A0FBE38
:0609A00001960895FFCF4F
:0209A6005AFFF6
:00000001FF
