:1000000045C0F6C15FC05EC05DC050C35BC05AC092
:1000100059C058C057C056C055C054C053C009023B
:100020002200010100800A09040000010300000011
:10003000092101010001221600070581030800645F
:100040001201100100000008C016DF0500010102C6
:1000500000011003740069006E0079004600610021
:100060006E00100366006B00700077006F006C007C
:100070006600040309040600FF0901A1011500261A
:10008000FF00750895800900B20201C011241FBE4F
:10009000CFE5D1E0DEBFCDBF10E0A0E6B0E0EAE200
:1000A000F9E003C0C89531960D92A636B107D1F795
:1000B00010E0A6E6B0E001C01D92AB3AB107E1F74F
:1000C000B3D332C49DCF1F93B92FA82F162F809181
:1000D0007F0084FF07C08091800098E88927809383
:1000E000800003C08AE580937F00912FE1E8F0E073
:1000F0008D91819391501916DCF3612F81E890E086
:1001000060D11C5F10937F001F91089585B78260B6
:1001100085BF8BB780648BBF8BE4809380008AE5BA
:1001200080937F0008951F93CF93DF936091900099
:10013000635067FDBCC080918D00C0EAD0E0C81B51
:10014000D10980918C008D3209F09EC0683009F091
:10015000ACC083EC809374008AE5809360001092B9
:1001600067008881807621F08C2F9D2F47D377C040
:100170009A8110927D008981882321F410927E005B
:1001800082E067C0853019F49093910061C0863099
:1001900009F04AC08B81813041F480E490E0909373
:1001A0008F0080938E0092E13AC0823041F48EE15C
:1001B00090E090938F0080938E0092E230C0833065
:1001C000C9F4992341F482E790E090938F008093E3
:1001D0008E0094E024C0913019F482E690E004C0CF
:1001E0009230E1F482E590E090938F0080938E004E
:1001F00090E115C0813241F480E390E090938F004C
:1002000080938E0099E00BC0823241F486E790E043
:1002100090938F0080938E0096E101C090E080E47F
:1002200080936700892F1BC0883021F481E023E987
:1002300030E011C0893019F49093930009C08A30DE
:1002400011F481E006C08B3019F48BE480938000B8
:1002500080E02DE730E030938F0020938E00982FC0
:100260008F3F41F4888188230CF49E8180E880933D
:10027000670007C08F81882321F48E81891708F4D5
:10028000982F9093610011C08091670087FF0DC087
:100290008C2F9D2F96D28F3F21F48EE180936000AA
:1002A00004C0882311F01092610010929000809198
:1002B000600084FF54C0809161008F3F09F44FC0FB
:1002C000893010F068E001C0682F861B80936100C0
:1002D0008091740098E8892780937400662351F117
:1002E0008091670087FF05C085E790E060D2682FA6
:1002F00021C0E0918E00F0918F0086FF0DC0A5E730
:10030000B0E090E0262F2195C895802D8D933196F1
:100310009150921759F0F8CFA5E7B0E090E0262F62
:10032000219581918D9391509217D9F7F0938F0079
:10033000E0938E007727162F693058F485E790E018
:1003400040D0912F9C5F9C3040F48FEF80936100F0
:1003500004C08FEF809361009EE19093600094E170
:1003600086B3867031F49150D9F7109291001092B3
:100370008B0010E0992309F411E080916600811749
:1003800039F0112319F4F89492D2789410936600FE
:10039000DF91CF911F910895A82FB92F80E090E0B1
:1003A00041E050EA609530E009C02D918227979591
:1003B000879510F084279527305EC8F36F5FA8F308
:1003C0000895EADF8D939D930895A6E088279927E5
:1003D000AA9569F00197E1F3B199FCCFB19BFECFEB
:1003E00081E09927A6B3019611F0A670D9F7089578
:1003F000CF93CFB7CF93C395B19BE9F7B19B0BC018
:10040000B19B09C0B19B07C0B19B05C0B19B03C0A4
:10041000B19B01C0D5C00F92DF93C0918D00DD2745
:10042000CC56DF4F012EB19B03C0DF910F90E6CF7A
:100430002F930F931F934F932FEF4F6F06B301FB33
:1004400020F95F933F9350E03BE065C016B301266F
:10045000502951FDC89556B3012701FB25F92F738B
:1004600006B3B1F05027102711FB26F906B222304F
:10047000F0F000C016B3012701FB27F9012650292F
:1004800006B22430E8F54F77206816B30000F6CFA7
:1004900050274F7D206206B2102F000000C006B327
:1004A00000265029102711FB26F906B2E2CF4F7B18
:1004B00006B3206400C0DACF01265029167006B2B8
:1004C00069F14E7F2160012F16B328C00026502904
:1004D0004D7F06B22260102F29C0012650294B7F84
:1004E00006B22460012F2DC016B301265029477F84
:1004F0002860000006B22EC04F7E06B3206130C0D7
:10050000422706B3499300265029102706B24FEF21
:1005100011FB20F9297F16B379F2167059F10126E3
:10052000502906B2012701FB21F9237F06B371F29E
:10053000002650293150D0F006B2102711FB22F9C5
:10054000277E16B351F201265029012701FB06B27E
:1005500023F92F7C49F2000006B3102711FB24F980
:100560000026502906B22F7939F270CF10E41ABF55
:10057000002719C03B503195C31BD04010E41ABF6F
:100580000881033C09F10B34F9F020918B001981AB
:10059000110F1213EDCF4A81441F093651F10D326C
:1005A00011F0013E29F7009392003F915F914F9126
:1005B0001F910F912F91DF910F90CAB7C6FD1BCFEE
:1005C000CF91CFBFCF91189520919200222369F34C
:1005D00010919000112379F534307AF13093900026
:1005E00020938C0010918D003BE0311B30938D00E7
:1005F00024C0009190000130F4F40AE54F7049F4F2
:100600003091600034FD1AC000936000C4E7D0E070
:1006100019C030917F0034FD11C000937F00C0E805
:10062000D0E010C0052710E000C021C0052710E071
:10063000C89508BB14C03AE501C032ED032EC0E0F6
:10064000D0E032E017B31660C19A08B317BB56E08A
:1006500020E84FEF20FF052708BB279517951C3F83
:1006600028F700004552B0F720FF0527279508BB63
:1006700017951C3FB8F629913A9561F7097F1091BB
:100680009100110F08BBC250D04011F010938B00A5
:1006900010E41ABF026017B3197F402F497F54E05E
:1006A0005A95F1F708BB17BB48BB7FCF1F920F923B
:1006B0000FB60F9211248F939F93AF93BF9312BEE7
:1006C000B09B21C080916E0090916F00A09170004E
:1006D000B09171008F3F9105A105B105E1F08091C6
:1006E0006E0090916F00A0917000B0917100019622
:1006F000A11DB11D80936E0090936F00A0937000B8
:10070000B093710008C010926E0010926F001092AA
:1007100070001092710080916E0090916F00A09116
:100720007000B09171000497A105B10549F4809162
:100730006C0090916D00019690936D0080936C0019
:100740008091620090916300A0916400B091650077
:100750000197A109B1098093620090936300A0936F
:100760006400B09365008091620090916300A09155
:100770006400B09165000097A105B10579F481E0AE
:100780008093AA0088EE93E0A0E0B0E0809362003E
:1007900090936300A0936400B0936500BF91AF9104
:1007A0009F918F910F900FBE0F901F901895F92F6A
:1007B000E82F80916A0090916B00808382E090E046
:1007C0000895209172002223A1F0261708F4622FC9
:1007D000909369008093680080917300860F8093E6
:1007E0007300822F861B8093720020E030E0882304
:1007F00011F421E030E0932F822F0895F92FE82F94
:1008000080818076803269F48181813011F0893075
:1008100041F480E880937200109273008FEF90E0B3
:10082000089580E090E00895CFE5D1E0DEBFCDBF30
:1008300088E190E02EE00FB6F894A89581BD0FBE38
:1008400021BD64DCB99A20E005C0A8958DE190E156
:100850000197F1F72150C9F7B998B89883E083BFA1
:1008600012BE82E089BFBC9A81E080BF80E68CBD69
:100870008FEF8DBD80E88BBD7894A89554DC809176
:10088000AA00882371F01092AA0080916C009091C8
:100890006D0090936B0080936A0010926D0010922F
:1008A0006C0080916800909169008BBDE6CFFF924B
:1008B0000F931F93CF93DF9380E8F82E00E0C8E0FA
:1008C000D0E0102F1F0D11BF80DD29E08433920787
:1008D0000CF4012FF6942197A1F7015001BF0F5F8F
:1008E000102FD92FC82F11C070DD8453994097FF66
:1008F00003C0909581959F4F8C179D071CF411B7ED
:10090000D92FC82F81B78F5F81BF21B73327802FA1
:1009100099270196821793073CF711BFDF91CF917A
:0A0920001F910F91FF900895FFCF83
:06092A005AFFE803000083
:00000001FF
