:1000000050C0DAC169C068C067C066C065C064C05E
:1000100063C062C061C060C05FC05EC05DC05CC0E4
:100020005BC05AC059C058C057C056C055C054C014
:1000300053C052C009022200010100800A090400D5
:100040000001030000000921010100012216000740
:100050000581030800641201100100000008C016A9
:10006000DF050001010200011003740069006E0049
:100070007900460061006E00100366006B0070009E
:1000800077006F006C006600040309040600FF0996
:1000900001A101150026FF00750895800900B20234
:1000A00001C011241FBECFEFD2E0DEBFCDBF11E0F3
:1000B000A0E0B1E0E0E8F7E002C005900D92A630C4
:1000C000B107D9F711E0A6E0B1E001C01D92AA3C4A
:1000D000B107E1F7F6D253C393CF1F93DC01162F7C
:1000E00080919E0184FF07C080919F0198E8892735
:1000F00080939F0103C08AE580939E01912FE0EADF
:10010000F1E08D91819391501916DCF3612F80EA13
:1001100091E04ED11C5F10939E011F910895E9E676
:10012000F0E0808182608083E89A8BE480939F0175
:100130008AE580939E0108951F93CF93DF9360918A
:10014000AF01635067FDBAC08091AC01CFEBD1E045
:10015000C81BD1098091AB018D3209F09DC0683078
:1001600009F0AAC083EC809393018AE58093000193
:10017000109206018881807619F0CE018DD277C069
:100180009A8110929C018981882321F410929D010B
:1001900082E067C0853019F49093B00161C0863069
:1001A00009F04AC08B81813041F486E590E090935C
:1001B000AE018093AD0192E13AC0823041F484E314
:1001C00090E09093AE018093AD0192E230C0833015
:1001D000C9F4992341F488E890E09093AE018093AC
:1001E000AD0194E024C0913019F488E790E004C098
:1001F0009230E1F488E690E09093AE018093AD01F7
:1002000090E115C0813241F486E490E09093AE0114
:100210008093AD0199E00BC0823241F48CE890E00C
:100220009093AE018093AD0196E101C090E080E42F
:1002300080930601892F1BC0883021F481E022EBD6
:1002400031E011C0893019F49093B20109C08A30AD
:1002500011F481E006C08B3019F48BE480939F0188
:1002600080E02CE931E03093AE012093AD01982F6E
:100270008F3F41F4888188230CF49E8180E880932D
:10028000060107C08F81882321F48E81891708F425
:10029000982F9093010110C08091060187FF0CC038
:1002A000CE01CBD18F3F21F48EE18093000104C0B9
:1002B000882311F0109201011092AF01809100018A
:1002C00084FF53C0809101018F3F09F44EC08930F3
:1002D00010F068E001C0682F861B809301018091B7
:1002E000930198E8892780939301662349F18091CF
:1002F000060187FF05C084E991E07FD1682F20C007
:10030000E091AD01F091AE0186FF0CC0A4E9B1E02F
:1003100090E0262F219584918D93319691509217DC
:1003200059F0F9CFA4E9B1E090E0262F2195819111
:100330008D9391509217D9F7F093AE01E093AD01F0
:100340007727162F693058F484E991E031D0912F46
:100350009C5F9C3040F48FEF8093010104C08FEFCD
:10036000809301019EE19093000194E189B1847131
:1003700031F49150D9F71092B0011092AA01DF9197
:10038000CF911F910895A82FB92F80E090E041E010
:1003900050EA609530E009C02D91822797958795A6
:1003A00010F084279527305EC8F36F5FA8F3089597
:1003B000EADF8D939D930895CF93CFB7CF93DF93CB
:1003C000C3954C9BE9F74C9B0BC04C9B09C04C9BC5
:1003D00007C04C9B05C04C9B03C04C9B01C08BC00D
:1003E0006F93C091AC01DD27CD54DE4F2F9365E5AF
:1003F0004C9B03C02F916F91E6CF0F931F934F93A8
:1004000020E040E15F9309B1047104FB27F93F93B9
:1004100050E03BE039C0147140642F77012F5F5FDB
:100420001EC0406819B114712F7752501FC040642C
:1004300009B12F770471D1F15F5F00C023C0406222
:1004400019B12F77147191F15F5F00C025C004715D
:100450001027515012F45D5F0000115027952C3F7A
:1004600019B1C8F614710127015027952C3FC8F621
:100470004227499309B1047110274F7311502795F2
:100480002C3FA8F64695469519B1147179F00127CD
:10049000015027952C3F98F66B5A60F3315009B103
:1004A000B0F600C011E01CBB002719C03B503195CD
:1004B000C31BD04011E01CBB0881033C09F10B3485
:1004C000F9F02091AA011981110F1213EDCF4A8181
:1004D000441F093651F10D3211F0013E29F7009306
:1004E000B1013F915F914F911F910F912F916F91AA
:1004F000CCB3C0FD65CFDF91CF91CFBFCF91189521
:100500002091B101222369F31091AF01112391F5DC
:10051000343092F13093AF012093AB011091AC01D4
:100520003BE0311B3093AC0127C00091AF0101309B
:100530000CF50AE54F7049F43091000134FD1DC0FF
:1005400000930001C3E9D1E01CC030919E0134FD4D
:1005500014C000939E01CFE9D1E013C0052710E03D
:1005600000C000000BB91AC0052710E0221F1DC0F3
:1005700010E021C04AE502C032ED432FC4E1D0E0D3
:1005800032E01AB114615C9A0BB11AB954E120E857
:1005900065E320FF05270BB9279517951C3FF0F65B
:1005A0006695B8F7B1F720FF05270BB92795179582
:1005B0001C3FD0F62795179517FF052700001C3F15
:1005C0000BB9B0F629913A9519F70B7E1091B0014D
:1005D000110FC651D0400BB911F01093AA0111E0D0
:1005E0001CBB00611AB11B7E402F4B7E54E05A9514
:1005F000F1F70BB91AB94BB974CFFF920F931F9350
:10060000F0909101F61608F0F62E0F2D112760914B
:10061000920177276F5E7E4FA801A2D08091920150
:100620008F0D80939201809191018F198093910198
:10063000C8011F910F91FF9008951F939C01109185
:100640009101112321F1161708F0162F412F55277C
:10065000809192019927B9018F5E9E4F81D0809140
:10066000110199279093890080938800809112014D
:1006700088BD80919201810F8093920180919101B8
:10068000811B8093910120E030E0882311F421E068
:1006900030E0C9011F910895FC018081807680328D
:1006A00069F48181813011F0893041F480E88093D0
:1006B0009101109292018FEF90E0089580E090E018
:1006C0000895CFEFD2E0DEBFCDBF88E190E02EE00D
:1006D0000FB6F894A895809360000FBE2093600039
:1006E0001EDD549A20E005C0A89580EA9FE001979E
:1006F000F1F72150C9F7549844E650E061E070E00A
:1007000081E191E026D0559A84B5836084BD85B59A
:10071000826085BD84B5806284BD84E188BD219AF4
:10072000809180008160809380008091810083604F
:1007300080938100809180008068809380008DE7A5
:1007400090E090938900809388007894A895F4DCD9
:10075000FDCFDC0101C06D9341505040E0F708959A
:10076000FB01DC014150504048F001900D92002007
:10077000C9F701C01D9241505040E0F70895FFCFE6
:060780005AFFE80300002F
:00000001FF
