:1000000048C0FCC161C060C05FC056C35DC05CC079
:100010005BC05AC059C058C057C056C055C0040331
:10002000090412036F0062006400650076002E0070
:100030006100740014034400610074006100530007
:1000400074006F00720065001201100100000008CA
:10005000C016DF05000101020001090222000101B2
:1000600000800A09040000010300000009210101C9
:100070000001221600070581030800640600FF093D
:1000800001A101150026FF00750895800900B20244
:1000900001C011241FBECFE5D1E0DEBFCDBF10E00F
:1000A000A0E6B0E0E4EAF8E002C005900D92A236C6
:1000B000B107D9F710E0A2E6B0E001C01D92AE3959
:1000C000B107E1F72ED3ECC39BCF85B7826085BF24
:1000D0008BB780648BBF8BE4809374008AE5809338
:1000E000730008951F93DC01162F8091730084FF25
:1000F00007C08091740098E889278093740003C03A
:100100008AE580937300912FE5E7F0E08D9181936C
:1001100091501916DCF385E790E0612F58D11C5FF0
:10012000109373001F9108951F93CF93DF936091F5
:100130008400635067FDBDC080918100CCE0D0E0B9
:10014000C81BD109C857DF4F809180008D3209F05C
:100150009EC0683009F0ABC083EC809368008AE5EC
:1001600080936000109263008881807639F0CE0120
:10017000C5D2282F8F3F09F479C07FC09A81109291
:1001800071008981882321F41092720022E067C0F7
:10019000853019F49093850061C0863009F04AC01B
:1001A0008B81813019F488E490E01BC0823041F4E7
:1001B0008AE590E0909383008093820022E236C02B
:1001C0008330F9F48A81882341F48EE190E09093A2
:1001D00083008093820024E029C0813041F482E2D0
:1001E00090E0909383008093820022E11FC08230D0
:1001F000E1F484E390E0909383008093820024E113
:1002000015C0813241F48CE690E090938300809396
:10021000820029E00BC0823241F48CE790E0909399
:1002200083008093820026E101C020E080E4809377
:10023000630023C0883021F421E087E890E011C0FA
:10024000893019F49093870009C08A3011F421E0B5
:1002500006C08B3019F48BE48093740020E081E7B2
:1002600090E0909383008093820007C0888187FD8F
:100270002E8180E88093630006C08F81882319F463
:100280008E81821708F0822F8093610010C08091C8
:10029000630087FF0CC0CE0164D28F3F21F48EE152
:1002A0008093600004C0882311F0109261001092C6
:1002B00084008091600084FF58C0809161008F3F6E
:1002C00009F453C0182F893008F018E0811B80937F
:1002D00061008091680098E8892780936800112365
:1002E00091F18091630087FF08C089E690E0612F5B
:1002F00058D2182F893098F526C02091820030916D
:10030000830086FF0DC0A9E6B0E080E090E0F9012F
:10031000E80FF91FE491ED9301961817C1F708C093
:10032000D901912FE9E6F0E08D9181939150E1F7A9
:100330001150812F90E01F5F0196820F931F9093C1
:1003400083008093820089E690E0612F40D0612F86
:100350006C5F6C3041F08FEF8093610004C08FEFD1
:10036000809361006EE16093600094E186B38670D3
:1003700031F49150D9F71092850010927F0010E06F
:10038000992309F411E080916200811739F011235B
:1003900019F4F89420D2789410936200DF91CF91F1
:1003A0001F910895A82FB92F80E090E041E050EA16
:1003B000609530E009C02D9182279795879510F0C0
:1003C00084279527305EC8F36F5FA8F30895EADFAE
:1003D0008D939D930895A6E088279927AA9569F0A3
:1003E0000197E1F3B199FCCFB19BFECF81E0992752
:1003F000A6B3019611F0A670D9F70895CF93CFB7A1
:10040000CF93C395B19BE9F7B19B0BC0B19B09C0DA
:10041000B19B07C0B19B05C0B19B03C0B19B01C09C
:10042000D5C00F92DF93C0918100DD27C857DF4F01
:10043000012EB19B03C0DF910F90E6CF2F930F9356
:100440001F934F932FEF4F6F06B301FB20F95F937C
:100450003F9350E03BE065C016B30126502951FDA3
:10046000C89556B3012701FB25F92F7306B3B1F0E8
:100470005027102711FB26F906B22230F0F000C0F9
:1004800016B3012701FB27F90126502906B22430B3
:10049000E8F54F77206816B30000F6CF50274F7D60
:1004A000206206B2102F000000C006B300265029BB
:1004B000102711FB26F906B2E2CF4F7B06B320646A
:1004C00000C0DACF01265029167006B269F14E7FBE
:1004D0002160012F16B328C0002650294D7F06B297
:1004E0002260102F29C0012650294B7F06B22460BC
:1004F000012F2DC016B301265029477F2860000028
:1005000006B22EC04F7E06B3206130C0422706B32C
:10051000499300265029102706B24FEF11FB20F90E
:10052000297F16B379F2167059F10126502906B2C7
:10053000012701FB21F9237F06B371F20026502920
:100540003150D0F006B2102711FB22F9277E16B3E6
:1005500051F201265029012701FB06B223F92F7C15
:1005600049F2000006B3102711FB24F90026502998
:1005700006B22F7939F270CF10E41ABF002719C0E4
:100580003B503195C31BD04010E41ABF0881033C97
:1005900009F10B34F9F020917F001981110F12132A
:1005A000EDCF4A81441F093651F10D3211F0013E61
:1005B00029F7009386003F915F914F911F910F9112
:1005C0002F91DF910F90CAB7C6FD1BCFCF91CFBF40
:1005D000CF91189520918600222369F31091840011
:1005E000112379F534307AF1309384002093800020
:1005F000109181003BE0311B3093810024C00091B9
:1006000084000130F4F40AE54F7049F43091600041
:1006100034FD1AC000936000C8E6D0E019C03091E4
:10062000730034FD11C000937300C4E7D0E010C024
:10063000052710E000C021C0052710E0C89508BBC1
:1006400014C03AE501C032ED032EC0E0D0E032E044
:1006500017B31660C19A08B317BB56E020E84FEFF6
:1006600020FF052708BB279517951C3F28F700009A
:100670004552B0F720FF0527279508BB17951C3F6B
:10068000B8F629913A9561F7097F10918500110F0D
:1006900008BBC250D04011F010937F0010E41ABF85
:1006A000026017B3197F402F497F54E05A95F1F744
:1006B00008BB17BB48BB7FCF1F920F920FB60F929C
:1006C00011248F939F9312BE8091640090916500D6
:1006D000019690936500809364004F9741F488B32E
:1006E00091E0892788BB10926500109264009F9169
:1006F0008F910F900FBE0F901F901895FC01808175
:100700008076803261F48181813011F0893039F452
:1007100080E880936700109266008FEF089580E074
:1007200008952EE088E190E00FB6F894A89581BD79
:100730000FBE21BDCADCB99A20E04DE150E104C0F2
:10074000A895CA010197F1F72150D1F7B998B89A45
:1007500085E083BF12BE82E089BF7894A895E4DC6F
:10076000FDCF1F93209167002223B9F0162F261783
:1007700008F4122F6091660070E0412F50E07AD0AB
:1007800080916600810F8093660080916700811BD5
:100790008093670090E0882309F491E0892F1F91EE
:1007A00008951F9320916700162F261708F4122F23
:1007B0006091660070E0412F50E04DD0809166005E
:1007C000810F8093660080916700811B8093670092
:1007D000812F1F910895EF92FF920F931F93CF9354
:1007E000DF9380E8F82E00E0C0E0D0E0102F1F0D6E
:1007F00011BFF1DD29E0843392070CF0102FF6943D
:100800002196C830D10511F0012FF0CF115011BF42
:100810001F5F7C01C12FD0E0219610C0DCDD845326
:10082000994097FF03C0909581959F4F8E159F0526
:1008300014F411B77C0181B78F5F81BF81B790E05D
:10084000C817D9075CF711BFDF91CF911F910F91A6
:10085000FF90EF900895DC01862FE82FE199FECFFD
:100860001FBA05C0EEBBE09AE3950DB20D92415060
:10087000C8F70895DC01862F02C02D9104D04150A5
:10088000E0F70895262FE199FECF1CBA1FBA8EBB60
:100890002DBB0FB6F894E29AE19A0FBE0196089527
:0408A000F894FFCFFA
:0208A4005AFFF9
:00000001FF
