:1000000050C0E6C169C068C067C066C065C064C052
:1000100063C0FFC261C060C05FC05EC05DC05CC045
:100020005BC05AC059C058C057C056C055C054C014
:1000300053C052C009022200010100800A090400D5
:100040000001030000000921010100012216000740
:100050000581030800641201100100000008C016A9
:10006000DF050001010200011003740069006E0049
:100070007900460061006E00100366006B0070009E
:1000800077006F006C006600040309040600FF0996
:1000900001A101150026FF00750895800900B20234
:1000A00001C011241FBECFEFD2E0DEBFCDBF11E0F3
:1000B000A0E0B1E0E2EFF9E002C005900D92A630B9
:1000C000B107D9F711E0A6E0B1E001C01D92A03E52
:1000D000B107E1F7E3D38BC493CFCF93C62F209121
:1000E000940124FF07C02091950138E8232720932D
:1000F000950103C02AE5209394012C2FFC01A6E969
:10010000B1E081918D9321501216DCF386E991E0E4
:100110006C2F5AD1CC5FC0939401CF910895CF93A7
:10012000DF936091A501635067FDC7C02091A201D4
:100130008CE090E0821B9109EC01C755DE4F2091C5
:10014000A1012D3209F0A7C0683009F0B4C023EC3A
:10015000209389012AE5209300011092060128814D
:10016000207631F0CE0185D38F3F09F483C089C05A
:100170003A81109292012981222331F41092930145
:1001800022E931E082E071C0253019F43093A601F4
:1001900069C0263009F050C0FC01E555FE4F2081B2
:1001A00084559E4FFC018081813041F486E590E0CA
:1001B0009093A4018093A30182E13AC0823041F47C
:1001C00084E390E09093A4018093A30182E230C085
:1001D0008330C9F4222341F488E890E09093A4018D
:1001E0008093A30184E024C0213019F488E790E0D3
:1001F00004C02230E1F488E690E09093A40180935B
:10020000A30180E115C0813241F486E490E090932F
:10021000A4018093A30189E00BC0823241F48CE8F1
:1002200090E09093A4018093A30186E101C080E057
:1002300090E49093060125C0283069F0293019F424
:100240003093A8010FC02A3049F02B3059F48BE4C9
:100250008093950107C028EA31E002C022E931E02D
:1002600081E003C022E931E080E03093A4012093D3
:10027000A30107C0988197FD8E8190E890930601B5
:1002800007C09F81992321F49E81981708F4892F34
:100290008093010110C08091060187FF0CC0CE0140
:1002A0008CD28F3F21F48EE18093000104C088231B
:1002B00011F0109201011092A5018091000184FFBC
:1002C00054C0809101018F3F09F44FC0C82F89307D
:1002D00008F0C8E08C1B809301018091890198E8A7
:1002E000892780938901CC2379F12091060127FF8A
:1002F00008C08AE891E06C2F49D2C82F893078F580
:1003000023C08091A3019091A40126FF0AC0FC01A3
:100310002C2FAAE8B1E034913D9331962150D9F7C2
:1003200008C0DC012C2FEAE8F1E03D913193215027
:10033000E1F72C2F215030E02F5F3F4F280F391F5E
:100340003093A4012093A3018AE891E06C2F3CD064
:10035000CC5FCC3041F08FEF8093010104C08FEF70
:1003600080930101CEE1C093000184E199B19471C1
:1003700031F48150D9F71092A6011092A001DF91BB
:10038000CF910895E9E6F0E0808182608083E89A69
:100390008BE4809395018AE5809394010895A82FBA
:1003A000B92F80E090E041E050EA609530E009C06C
:1003B0002D9182279795879510F084279527305E99
:1003C000C8F36F5FA8F30895EADF8D939D930895B6
:1003D000CF93CFB7CF93DF93C3954C9BE9F74C9B5B
:1003E0000BC04C9B09C04C9B07C04C9B05C04C9B51
:1003F00003C04C9B01C08BC06F93C091A201DD274D
:10040000C755DE4F2F9365E54C9B03C02F916F912D
:10041000E6CF0F931F934F9320E040E15F9309B124
:10042000047104FB27F93F9350E03BE039C014719D
:1004300040642F77012F5F5F1EC0406819B11471AF
:100440002F7752501FC0406409B12F770471D1F14A
:100450005F5F00C023C0406219B12F77147191F122
:100460005F5F00C025C004711027515012F45D5F1A
:100470000000115027952C3F19B1C8F614710127BF
:10048000015027952C3FC8F64227499309B10471C2
:1004900010274F73115027952C3FA8F64695469587
:1004A00019B1147179F00127015027952C3F98F666
:1004B0006B5A60F3315009B1B0F600C011E01CBBBB
:1004C000002719C03B503195C31BD04011E01CBB25
:1004D0000881033C09F10B34F9F02091A001198146
:1004E000110F1213EDCF4A81441F093651F10D321D
:1004F00011F0013E29F70093A7013F915F914F91C1
:100500001F910F912F916F91CCB3C0FD65CFDF91FB
:10051000CF91CFBFCF9118952091A701222369F3E6
:100520001091A501112391F5343092F13093A5017A
:100530002093A1011091A2013BE0311B3093A20155
:1005400027C00091A50101300CF50AE54F7049F470
:100550003091000134FD1DC000930001C9E8D1E0D5
:100560001CC03091940134FD14C000939401C5E97E
:10057000D1E013C0052710E000C000000BB91AC07D
:10058000052710E0221F1DC010E021C04AE502C06F
:1005900032ED432FC4E1D0E032E01AB114615C9A2D
:1005A0000BB11AB954E120E865E320FF05270BB928
:1005B000279517951C3FF0F66695B8F7B1F720FF21
:1005C00005270BB9279517951C3FD0F6279517954A
:1005D00017FF052700001C3F0BB9B0F629913A958B
:1005E00019F70B7E1091A601110FC651D0400BB91F
:1005F00011F01093A00111E01CBB00611AB11B7E29
:10060000402F4B7E54E05A95F1F70BB91AB94BB90C
:1006100074CF1F920F920FB60F9211248F939F9356
:10062000AF93BF9386E08093B200189B21C0809166
:10063000D7019091D801A091D901B091DA018F3FF3
:100640009105A105B105E1F08091D7019091D80104
:10065000A091D901B091DA010196A11DB11D80933D
:10066000D7019093D801A093D901B093DA0108C0C3
:100670001092D7011092D8011092D9011092DA018C
:100680008091D7019091D801A091D901B091DA0160
:1006900084309105A105B10549F48091CB01909179
:1006A000CC0101969093CC018093CB01499B21C052
:1006B0008091CF019091D001A091D101B091D20150
:1006C0008F3F9105A105B105E1F08091CF01909197
:1006D000D001A091D101B091D2010196A11DB11D0F
:1006E0008093CF019093D001A093D101B093D20118
:1006F00008C01092CF011092D0011092D101109237
:10070000D2018091CF019091D001A091D101B091FF
:10071000D20184309105A105B10549F48091C7014A
:100720009091C80101969093C8018093C701809170
:10073000020190910301A0910401B091050101977C
:10074000A109B1098093020190930301A0930401D0
:10075000B09305010097A105B10579F481E080937C
:10076000DF0188EE93E0A0E0B0E080930201909377
:100770000301A0930401B0930501BF91AF919F9134
:100780008F910F900FBE0F901F901895FC018091D4
:10079000BF019091C00180838091C1019091C201FD
:1007A00081838091C3019091C40182838091C501AE
:1007B0009091C601838384E00895CF939C0180913A
:1007C0000701882309F452C0C62F861708F4C82FE2
:1007D0008091080190E0875F9E4FB9014C2F50E057
:1007E000F7D0809109018B37A9F480910A0190E03C
:1007F00090938B0080938A0080910B0190E09093FE
:1008000089008093880080910C0188BD80910D0142
:1008100087BD1DC08C37D9F480910A01813211F453
:10082000449803C08C3209F4449A80910B018132C0
:1008300011F4459803C08C3209F4459A80910C015B
:10084000813211F4439803C08C3209F4439A8091A9
:1008500008018C0F80930801909107019C1B9093D5
:10086000070181E0992319F080E001C081E0CF9178
:100870000895FC0180818076803261F4818181302D
:1008800011F0893049F480E8809307011092080143
:100890008FEF089580E0089580E008952EE088E1CC
:1008A00090E00FB6F894A895809360000FBE209357
:1008B000600068DD549A40E020EA3FE004C0A8955B
:1008C000C9010197F1F74150D1F7549889E091E0BF
:1008D00061E070E044E650E074D0559A569A84B5D1
:1008E000816084BD85B5816085BD84B5806A84BD25
:1008F0008DE788BD87BD219A229A80918000816012
:10090000809380008091810081608093810080913C
:100910008000806A809380008DE790E0909389004A
:100920008093880090938B0080938A003B9A3C9A36
:100930003D9A439A449A459A5198599A53985B9A8A
:100940002098289A23982B9A8091B60080648093EF
:10095000B6008091B60080628093B6008091B100AD
:1009600084608093B1008091B60080FDFCCF86E06A
:100970008093B20081E0809370003A9A399A429A4B
:10098000419A7894A895CBDB8091DF018823D1F33D
:100990001092DF0180E090E09C01220F331FF901EB
:1009A000E953FE4F4081518121543E4FD9011196A8
:1009B0005C934E931182108201968430910561F709
:1009C000E1CFDC0101C06D9341505040E0F7089544
:1009D000FB01DC014150504048F001900D92002095
:1009E000C9F701C01D9241505040E0F70895F894B6
:0209F000FFCF37
:0609F2005AFFE8030000BB
:00000001FF
