:1000000050C0DAC169C068C067C066C065C064C05E
:1000100063C0F3C261C060C05FC05EC05DC05CC051
:100020005BC05AC059C058C057C056C055C054C014
:1000300053C052C009022200010100800A090400D5
:100040000001030000000921010100012216000740
:100050000581030800641201100100000008C016A9
:10006000DF050001010200011003740069006E0049
:100070007900460061006E00100366006B0070009E
:1000800077006F006C006600040309040600FF0996
:1000900001A101150026FF00750895800900B20234
:1000A00001C011241FBECFEFD2E0DEBFCDBF11E0F3
:1000B000A0E0B1E0E0E7F9E002C005900D92A630C3
:1000C000B107D9F711E0A6E0B1E001C01D92A03E52
:1000D000B107E1F7B1D34BC493CF1F93DC01162FC7
:1000E0008091940184FF07C08091950198E8892749
:1000F0008093950103C08AE580939401912FE6E9EE
:10010000F1E08D91819391501916DCF3612F86E90E
:1001100091E04ED11C5F109394011F910895E9E680
:10012000F0E0808182608083E89A8BE4809395017F
:100130008AE58093940108951F93CF93DF93609194
:10014000A501635067FDBAC08091A201C5EBD1E063
:10015000C81BD1098091A1018D3209F09DC0683082
:1001600009F0AAC083EC809389018AE5809300019D
:10017000109206018881807619F0CE0148D377C0AD
:100180009A81109292018981882321F4109293011F
:1001900082E067C0853019F49093A60161C0863073
:1001A00009F04AC08B81813041F486E590E090935C
:1001B000A4018093A30192E13AC0823041F484E328
:1001C00090E09093A4018093A30192E230C0833029
:1001D000C9F4992341F488E890E09093A4018093B6
:1001E000A30194E024C0913019F488E790E004C0A2
:1001F0009230E1F488E690E09093A4018093A3010B
:1002000090E115C0813241F486E490E09093A4011E
:100210008093A30199E00BC0823241F48CE890E016
:100220009093A4018093A30196E101C090E080E443
:1002300080930601892F1BC0883021F481E028EAD1
:1002400031E011C0893019F49093A80109C08A30B7
:1002500011F481E006C08B3019F48BE48093950192
:1002600080E022E931E03093A4012093A301982F8C
:100270008F3F41F4888188230CF49E8180E880932D
:10028000060107C08F81882321F48E81891708F425
:10029000982F9093010110C08091060187FF0CC038
:1002A000CE0186D28F3F21F48EE18093000104C0FD
:1002B000882311F0109201011092A5018091000194
:1002C00084FF53C0809101018F3F09F44EC08930F3
:1002D00010F068E001C0682F861B809301018091B7
:1002E000890198E8892780938901662349F18091E3
:1002F000060187FF05C08AE891E042D2682F20C03E
:10030000E091A301F091A40186FF0CC0AAE8B1E03E
:1003100090E0262F219584918D93319691509217DC
:1003200059F0F9CFAAE8B1E090E0262F219581910C
:100330008D9391509217D9F7F093A401E093A30104
:100340007727162F693058F48AE891E031D0912F41
:100350009C5F9C3040F48FEF8093010104C08FEFCD
:10036000809301019EE19093000194E189B1847131
:1003700031F49150D9F71092A6011092A001DF91AB
:10038000CF911F910895A82FB92F80E090E041E010
:1003900050EA609530E009C02D91822797958795A6
:1003A00010F084279527305EC8F36F5FA8F3089597
:1003B000EADF8D939D930895CF93CFB7CF93DF93CB
:1003C000C3954C9BE9F74C9B0BC04C9B09C04C9BC5
:1003D00007C04C9B05C04C9B03C04C9B01C08BC00D
:1003E0006F93C091A201DD27C755DE4F2F9365E5BE
:1003F0004C9B03C02F916F91E6CF0F931F934F93A8
:1004000020E040E15F9309B1047104FB27F93F93B9
:1004100050E03BE039C0147140642F77012F5F5FDB
:100420001EC0406819B114712F7752501FC040642C
:1004300009B12F770471D1F15F5F00C023C0406222
:1004400019B12F77147191F15F5F00C025C004715D
:100450001027515012F45D5F0000115027952C3F7A
:1004600019B1C8F614710127015027952C3FC8F621
:100470004227499309B1047110274F7311502795F2
:100480002C3FA8F64695469519B1147179F00127CD
:10049000015027952C3F98F66B5A60F3315009B103
:1004A000B0F600C011E01CBB002719C03B503195CD
:1004B000C31BD04011E01CBB0881033C09F10B3485
:1004C000F9F02091A0011981110F1213EDCF4A818B
:1004D000441F093651F10D3211F0013E29F7009306
:1004E000A7013F915F914F911F910F912F916F91B4
:1004F000CCB3C0FD65CFDF91CF91CFBFCF91189521
:100500002091A701222369F31091A501112391F5F0
:10051000343092F13093A5012093A1011091A201F2
:100520003BE0311B3093A20127C00091A5010130AF
:100530000CF50AE54F7049F43091000134FD1DC0FF
:1005400000930001C9E8D1E01CC03091940134FD52
:1005500014C000939401C5E9D1E013C0052710E051
:1005600000C000000BB91AC0052710E0221F1DC0F3
:1005700010E021C04AE502C032ED432FC4E1D0E0D3
:1005800032E01AB114615C9A0BB11AB954E120E857
:1005900065E320FF05270BB9279517951C3FF0F65B
:1005A0006695B8F7B1F720FF05270BB92795179582
:1005B0001C3FD0F62795179517FF052700001C3F15
:1005C0000BB9B0F629913A9519F70B7E1091A60157
:1005D000110FC651D0400BB911F01093A00111E0DA
:1005E0001CBB00611AB11B7E402F4B7E54E05A9514
:1005F000F1F70BB91AB94BB974CF1F920F920FB61E
:100600000F9211248F939F93AF93BF9386E08093B3
:10061000B200189B21C08091CF019091D001A09190
:10062000D101B091D2018F3F9105A105B105E1F053
:100630008091CF019091D001A091D101B091D201D0
:100640000196A11DB11D8093CF019093D001A0937D
:10065000D101B093D20108C01092CF011092D00105
:100660001092D1011092D2018091CF019091D001CE
:10067000A091D101B091D2010497A105B10549F42F
:100680008091C7019091C80101969093C801809311
:10069000C7014B9B21C08091D7019091D801A091B7
:1006A000D901B091DA018F3F9105A105B105E1F0C3
:1006B0008091D7019091D801A091D901B091DA0130
:1006C0000196A11DB11D8093D7019093D801A093ED
:1006D000D901B093DA0108C01092D7011092D80165
:1006E0001092D9011092DA018091D7019091D8012E
:1006F000A091D901B091DA010497A105B10549F49F
:100700008091CB019091CC0101969093CC01809384
:10071000CB018091020190910301A0910401B0915D
:1007200005010197A109B10980930201909303018A
:10073000A0930401B09305018091020190910301FF
:10074000A0910401B09105010097A105B10579F4CC
:1007500081E08093DF0188EE93E0A0E0B0E0809339
:10076000020190930301A0930401B0930501BF918E
:10077000AF919F918F910F900FBE0F901F90189582
:10078000FC018091BF019091C00180838091C101E3
:100790009091C20181838091C3019091C4018283B1
:1007A0008091C5019091C601838384E090E0089513
:1007B0001F939C0110918701112321F1161708F056
:1007C000162F412F5527809188019927B901895FFC
:1007D0009E4FBED080910701992790938900809306
:1007E00088008091080188BD80918801810F8093E5
:1007F000880180918701811B8093870120E030E090
:10080000882311F421E030E0C9011F910895FC0113
:1008100080818076803269F48181813011F0893065
:1008200041F480E880938701109288018FEF90E077
:10083000089580E090E00895CFEFD2E0DEBFCDBF15
:1008400088E190E02EE00FB6F894A89580936000C0
:100850000FBE2093600063DC549A20E005C0A89589
:1008600080EA9FE00197F1F72150C9F7549844E6D8
:1008700050E061E070E087E091E063D0559A84B584
:10088000816084BD85B5816085BD84B5806284BD8D
:100890008DE788BD219A80918000816080938000DF
:1008A00080918100816080938100809180008068C8
:1008B000809380008DE790E090938900809388007A
:1008C0002098289A53985B9A8091B6008064809310
:1008D000B6008091B60080628093B6008091B1002E
:1008E00084608093B1008091B60080FDFCCF86E0EB
:1008F0008093B20081E0809370003A9A429A789493
:10090000A8951ADC8091DF018823D1F31092DF01D2
:1009100020E030E0AFEBB1E0E7ECF1E080819181E5
:1009200011969C938E9312961182108232962F5FAD
:100930003F4F2430310591F788B194E0892788B979
:10094000DFCFDC0101C06D9341505040E0F70895C6
:10095000FB01DC014150504048F001900D92002015
:10096000C9F701C01D9241505040E0F70895FFCFF4
:060970005AFFE80300003D
:00000001FF
