:1000000050C0E6C169C068C067C066C065C064C052
:1000100063C0FFC261C060C05FC05EC05DC05CC045
:100020005BC05AC059C058C057C056C055C054C014
:1000300053C052C009022200010100800A090400D5
:100040000001030000000921010100012216000740
:100050000581030800641201100100000008C016A9
:10006000DF050001010200011003740069006E0049
:100070007900460061006E00100366006B0070009E
:1000800077006F006C006600040309040600FF0996
:1000900001A101150026FF00750895800900B20234
:1000A00001C011241FBECFEFD2E0DEBFCDBF11E0F3
:1000B000A0E0B1E0E6EFFAE002C005900D92A630B4
:1000C000B107D9F711E0A6E0B1E001C01D92AC364E
:1000D000B107E1F765D40DC593CFCF93C62F20911B
:1000E000200124FF07C02091210138E82327209315
:1000F000210103C02AE5209320012C2FFC01A2E25C
:10010000B1E081918D9321501216DCF382E291E0EF
:100110006C2F5AD1CC5FC0932001CF910895CF931B
:10012000DF9360913101635067FDC7C020912E01BC
:100130008CE090E0821B9109EC01CB5CDE4F2091BA
:100140002D012D3209F0A7C0683009F0B4C023ECAE
:10015000209315012AE520930001109206012881C1
:10016000207631F0CE0107D48F3F09F483C089C0D7
:100170003A8110921E012981222331F410921F012D
:100180002EE131E082E071C0253019F43093320164
:1001900069C0263009F050C0FC01E95CFE4F2081A7
:1001A000885C9E4FFC018081813041F486E590E0BF
:1001B0009093300180932F0182E13AC0823041F464
:1001C00084E390E09093300180932F0182E230C06D
:1001D0008330C9F4222341F488E890E09093300101
:1001E00080932F0184E024C0213019F488E790E047
:1001F00004C02230E1F488E690E0909330018093CF
:100200002F0180E115C0813241F486E490E09093A3
:10021000300180932F0189E00BC0823241F48CE8D9
:1002200090E09093300180932F0186E101C080E03F
:1002300090E49093060125C0283069F0293019F424
:10024000309334010FC02A3049F02B3059F48BE43D
:100250008093210107C024E331E002C02EE131E0A8
:1002600081E003C02EE131E080E030933001209343
:100270002F0107C0988197FD8E8190E89093060129
:1002800007C09F81992321F49E81981708F4892F34
:100290008093010110C08091060187FF0CC0CE0140
:1002A0000ED38F3F21F48EE18093000104C0882398
:1002B00011F010920101109231018091000184FF30
:1002C00054C0809101018F3F09F44FC0C82F89307D
:1002D00008F0C8E08C1B809301018091150198E81B
:1002E000892780931501CC2379F12091060127FFFE
:1002F00008C086E191E06C2FCBD2C82F893078F509
:1003000023C080912F019091300126FF0AC0FC018B
:100310002C2FA6E1B1E034913D9331962150D9F7CD
:1003200008C0DC012C2FE6E1F1E03D913193215032
:10033000E1F72C2F215030E02F5F3F4F280F391F5E
:100340003093300120932F0186E191E06C2F3CD057
:10035000CC5FCC3041F08FEF8093010104C08FEF70
:1003600080930101CEE1C093000184E199B19471C1
:1003700031F48150D9F71092320110922C01DF91A3
:10038000CF910895E9E6F0E0808182608083E89A69
:100390008BE4809321018AE5809320010895A82FA2
:1003A000B92F80E090E041E050EA609530E009C06C
:1003B0002D9182279795879510F084279527305E99
:1003C000C8F36F5FA8F30895EADF8D939D930895B6
:1003D000CF93CFB7CF93DF93C3954C9BE9F74C9B5B
:1003E0000BC04C9B09C04C9B07C04C9B05C04C9B51
:1003F00003C04C9B01C08BC06F93C0912E01DD27C1
:10040000CB5CDE4F2F9365E54C9B03C02F916F9122
:10041000E6CF0F931F934F9320E040E15F9309B124
:10042000047104FB27F93F9350E03BE039C014719D
:1004300040642F77012F5F5F1EC0406819B11471AF
:100440002F7752501FC0406409B12F770471D1F14A
:100450005F5F00C023C0406219B12F77147191F122
:100460005F5F00C025C004711027515012F45D5F1A
:100470000000115027952C3F19B1C8F614710127BF
:10048000015027952C3FC8F64227499309B10471C2
:1004900010274F73115027952C3FA8F64695469587
:1004A00019B1147179F00127015027952C3F98F666
:1004B0006B5A60F3315009B1B0F600C011E01CBBBB
:1004C000002719C03B503195C31BD04011E01CBB25
:1004D0000881033C09F10B34F9F020912C011981BA
:1004E000110F1213EDCF4A81441F093651F10D321D
:1004F00011F0013E29F7009333013F915F914F9135
:100500001F910F912F916F91CCB3C0FD65CFDF91FB
:10051000CF91CFBFCF91189520913301222369F35A
:1005200010913101112391F5343092F13093310162
:1005300020932D0110912E013BE0311B30932E01B1
:1005400027C00091310101300CF50AE54F7049F4E4
:100550003091000134FD1DC000930001C5E1D1E0E0
:100560001CC03091200134FD14C000932001C1E271
:10057000D1E013C0052710E000C000000BB91AC07D
:10058000052710E0221F1DC010E021C04AE502C06F
:1005900032ED432FC4E1D0E032E01AB114615C9A2D
:1005A0000BB11AB954E120E865E320FF05270BB928
:1005B000279517951C3FF0F66695B8F7B1F720FF21
:1005C00005270BB9279517951C3FD0F6279517954A
:1005D00017FF052700001C3F0BB9B0F629913A958B
:1005E00019F70B7E10913201110FC651D0400BB993
:1005F00011F010932C0111E01CBB00611AB11B7E9D
:10060000402F4B7E54E05A95F1F70BB91AB94BB90C
:1006100074CF1F920F920FB60F9211248F939F9356
:10062000AF93BF9386E08093B200499B21C0809135
:100630005B0190915C01A0915D01B0915E018F3FE3
:100640009105A105B105E1F080915B0190915C01FC
:10065000A0915D01B0915E010196A11DB11D809335
:100660005B0190935C01A0935D01B0935E0108C0B3
:1006700010925B0110925C0110925D0110925E017C
:1006800080915B0190915C01A0915D01B0915E0150
:1006900084309105A105B10549F4809153019091F1
:1006A0005401019690935401809353014B9B21C0B8
:1006B00080915F0190916001A0916101B091620110
:1006C0008F3F9105A105B105E1F080915F01909107
:1006D0006001A0916101B09162010196A11DB11D5F
:1006E00080935F0190936001A0936101B0936201D8
:1006F00008C010925F011092600110926101109287
:10070000620180915F0190916001A0916101B091BF
:10071000620184309105A105B10549F4809155012C
:100720009091560101969093560180935501189B24
:1007300021C08091630190916401A0916501B09105
:1007400066018F3F9105A105B105E1F0809163013C
:1007500090916401A0916501B09166010196A11D7F
:10076000B11D8093630190936401A0936501B093E0
:10077000660108C010926301109264011092650135
:10078000109266018091630190916401A0916501CE
:10079000B091660184309105A105B10549F48091BD
:1007A00057019091580101969093580180935701F9
:1007B0001B9B21C08091670190916801A091690104
:1007C000B0916A018F3F9105A105B105E1F08091DB
:1007D000670190916801A0916901B0916A01019649
:1007E000A11DB11D8093670190936801A0936901D9
:1007F000B0936A0108C010926701109268011092CC
:10080000690110926A018091670190916801A0913D
:100810006901B0916A0184309105A105B10549F4DF
:100820008091590190915A01019690935A018093B9
:1008300059018091020190910301A0910401B091AE
:1008400005010197A109B109809302019093030169
:10085000A0930401B09305010097A105B10579F4B7
:1008600081E080936B0188EE93E0A0E0B0E080939C
:10087000020190930301A0930401B0930501BF917D
:10088000AF919F918F910F900FBE0F901F90189571
:10089000FC0180914B0190914C01808380914D012E
:1008A00090914E01818380914F01909150018283FC
:1008B0008091510190915201838384E00895CF93F8
:1008C0009C0180910701882309F452C0C62F861726
:1008D00008F4C82F8091080190E0875F9E4FB9010E
:1008E0004C2F50E0F7D0809109018B37A9F480910B
:1008F0000A0190E090938B0080938A0080910B0115
:1009000090E0909389008093880080910C0188BDCD
:1009100080910D0187BD1DC08C37D9F480910A01EB
:10092000813211F4449803C08C3209F4449A8091C6
:100930000B01813211F4459803C08C3209F4459AB9
:1009400080910C01813211F4439803C08C3209F478
:10095000439A809108018C0F8093080190910701C0
:100960009C1B9093070181E0992319F080E001C05E
:1009700081E0CF910895FC0180818076803261F41E
:100980008181813011F0893049F48CE08093070136
:10099000109208018FEF089580E0089580E0089597
:1009A0002EE088E190E00FB6F894A895809360005F
:1009B0000FBE20936000E6DC549A40E020EA3FE05E
:1009C00004C0A895C9010197F1F74150D1F7549897
:1009D00089E091E061E070E04CE050E074D0559A1D
:1009E000569A84B5816084BD85B5816085BD84B526
:1009F000806A84BD8DE788BD87BD219A229A809147
:100A0000800081608093800080918100816080936C
:100A1000810080918000806A809380008DE790E063
:100A2000909389008093880090938B0080938A0034
:100A30003B9A3C9A3D9A439A449A459A5198599ABE
:100A400053985B9A2098289A23982B9A8091B60005
:100A500080648093B6008091B60080628093B60077
:100A60008091B10084608093B1008091B60080FDD8
:100A7000FCCF86E08093B20081E0809370003A9AC8
:100A8000399A429A419A7894A89549DB80916B01F2
:100A90008823D1F310926B0180E090E09C01220F3B
:100AA000331FF901ED5AFE4F40815181255B3E4FC6
:100AB000D90111965C934E93118210820196843075
:100AC000910561F7E1CFDC0101C06D9341505040C9
:100AD000E0F70895FB01DC014150504048F00190DF
:100AE0000D920020C9F701C01D9241505040E0F71F
:060AF0000895F894FFCF09
:060AF6005AFFE8030000B6
:00000001FF
